{
  "contractName": "PaymentProcessor",
  "abi": [
    {
      "inputs": [
        {
          "internalType": "address",
          "name": "adminAddress",
          "type": "address"
        },
        {
          "internalType": "address",
          "name": "usdtAddress",
          "type": "address"
        }
      ],
      "stateMutability": "nonpayable",
      "type": "constructor"
    },
    {
      "anonymous": false,
      "inputs": [
        {
          "indexed": false,
          "internalType": "address",
          "name": "payer",
          "type": "address"
        },
        {
          "indexed": false,
          "internalType": "uint256",
          "name": "amount",
          "type": "uint256"
        },
        {
          "indexed": false,
          "internalType": "uint256",
          "name": "paymentId",
          "type": "uint256"
        },
        {
          "indexed": false,
          "internalType": "uint256",
          "name": "date",
          "type": "uint256"
        }
      ],
      "name": "PaymentDone",
      "type": "event"
    },
    {
      "inputs": [],
      "name": "admin",
      "outputs": [
        {
          "internalType": "address",
          "name": "",
          "type": "address"
        }
      ],
      "stateMutability": "view",
      "type": "function",
      "constant": true
    },
    {
      "inputs": [],
      "name": "usdt",
      "outputs": [
        {
          "internalType": "contract IERC20",
          "name": "",
          "type": "address"
        }
      ],
      "stateMutability": "view",
      "type": "function",
      "constant": true
    },
    {
      "inputs": [
        {
          "internalType": "uint256",
          "name": "amount",
          "type": "uint256"
        },
        {
          "internalType": "uint256",
          "name": "paymentId",
          "type": "uint256"
        }
      ],
      "name": "pay",
      "outputs": [],
      "stateMutability": "nonpayable",
      "type": "function"
    }
  ],
  "bytecode": "0x608060405234801561001057600080fd5b5060405161042c38038061042c8339818101604052604081101561003357600080fd5b810190808051906020019092919080519060200190929190505050816000806101000a81548173ffffffffffffffffffffffffffffffffffffffff021916908373ffffffffffffffffffffffffffffffffffffffff16021790555080600160006101000a81548173ffffffffffffffffffffffffffffffffffffffff021916908373ffffffffffffffffffffffffffffffffffffffff160217905550505061034c806100e06000396000f3fe608060405234801561001057600080fd5b50600436106100415760003560e01c80632f48ab7d14610046578063ef48eee614610090578063f851a440146100c8575b600080fd5b61004e610112565b604051808273ffffffffffffffffffffffffffffffffffffffff1673ffffffffffffffffffffffffffffffffffffffff16815260200191505060405180910390f35b6100c6600480360360408110156100a657600080fd5b810190808035906020019092919080359060200190929190505050610138565b005b6100d06102f1565b604051808273ffffffffffffffffffffffffffffffffffffffff1673ffffffffffffffffffffffffffffffffffffffff16815260200191505060405180910390f35b600160009054906101000a900473ffffffffffffffffffffffffffffffffffffffff1681565b600160009054906101000a900473ffffffffffffffffffffffffffffffffffffffff1673ffffffffffffffffffffffffffffffffffffffff166323b872dd336000809054906101000a900473ffffffffffffffffffffffffffffffffffffffff16856040518463ffffffff1660e01b8152600401808473ffffffffffffffffffffffffffffffffffffffff1673ffffffffffffffffffffffffffffffffffffffff1681526020018373ffffffffffffffffffffffffffffffffffffffff1673ffffffffffffffffffffffffffffffffffffffff1681526020018281526020019350505050602060405180830381600087803b15801561023657600080fd5b505af115801561024a573d6000803e3d6000fd5b505050506040513d602081101561026057600080fd5b8101908080519060200190929190505050507f78eaebe37a28490ff43ed0e95bdc47de1587156ac0069b652e1d2d9f42464e9833838342604051808573ffffffffffffffffffffffffffffffffffffffff1673ffffffffffffffffffffffffffffffffffffffff16815260200184815260200183815260200182815260200194505050505060405180910390a15050565b6000809054906101000a900473ffffffffffffffffffffffffffffffffffffffff168156fea264697066735822122065e5d2fa689beb8bb95f0ebd5f8cb6035c4a09360eb3344c45546562743f7aa364736f6c63430006020033",
  "source": "pragma solidity ^0.6.2;\n\nimport '@openzeppelin/contracts/token/ERC20/IERC20.sol';\n\ncontract PaymentProcessor {\n  address public admin;\n  IERC20 public usdt;\n\n  event PaymentDone(\n    address payer,\n    uint amount,\n    uint paymentId,\n    uint date\n  );\n\n  constructor(address adminAddress, address usdtAddress) public {\n    admin = adminAddress;\n    usdt = IERC20(usdtAddress);\n  }\n\n  function pay(uint amount, uint paymentId) external {\n    usdt.transferFrom(msg.sender, admin, amount);\n    emit PaymentDone(msg.sender, amount, paymentId, block.timestamp);\n  }\n}\n",
  "sourcePath": "/home/kang/wallets/eCommerce-dapp/contracts/PaymentProcessor.sol",
  "compiler": {
    "name": "solc",
    "version": "0.6.2+commit.bacdbe57.Emscripten.clang"
  },
  "schemaVersion": "3.2.5",
  "updatedAt": "2020-09-27T04:06:28.000Z",
  "networkType": "ethereum",
  "devdoc": {
    "methods": {}
  },
  "userdoc": {
    "methods": {}
  }
}